:100000000C9434000C9451000C9451000C94510049
:100010000C9451000C9451000C9451000C9451001C
:100020000C9451000C9451000C9451000C94920FBC
:100030000C9451000C9451000C9451000C945100FC
:100040000C9451000C9451000C9451000C945100EC
:100050000C9451000C9451000C9451000C945100DC
:100060000C9451000C94510011241FBECFEFD8E026
:10007000DEBFCDBF11E0A0E0B1E0EAEEFFE102C0DB
:1000800005900D92AC30B107D9F727E0ACE0B1E0B4
:1000900001C01D92AF37B207E1F70E94D80F0C9450
:1000A000F30F0C940000CF93DF9300D0CDB7DEB7F1
:1000B0000E944D0E0E94170989839A830E944F0E59
:1000C00068EE73E0CE0101960E943F0AF7CF0895D3
:1000D000EF92FF921F93CF93DF9300D000D0CDB764
:1000E000DEB789839A83162FF42E8AE190E00E946E
:1000F000950F8B839C83892B09F469C080910C0137
:1001000090910D01892B31F58B819C8180930C019D
:1001100090930D0184E391E00E94A8038DE391E0A8
:100120000E94A8038BE291E00E94A80382E291E082
:100130000E94A80385E191E00E94A8038BE291E070
:10014000809320019093210182E291E080931E012F
:1001500090931F01111111E0EB81FC81108E118E23
:10016000168BF78A89819A81819391937F01CF01C0
:100170000E94B6038B819C810C960E94B6038B81F2
:100180009C81FC0180879187828B938B82E090E039
:10019000811B91098487958786899091140198170E
:1001A00010F480931401F9E08F9FC0011124B7016E
:1001B0008C5C9E4F0E94BA0381E00F900F900F90CD
:1001C0000F90DF91CF911F91FF90EF9008958FEFE7
:1001D000F4CF0F931F93CF93DF938B01C091120144
:1001E000D0911301C80FD91F80910C0190910D017E
:1001F00002960E940904E0910C01F0910D01C28366
:10020000D3838091120190911301BF016E5F7F4FE4
:10021000C817D907B0F480911E0190911F010E9468
:10022000D9030115110591F060910C0170910D0138
:10023000645F7F4FC801DF91CF911F910F910C94A4
:10024000D9038091200190912101E9CFDF91CF91D5
:100250001F910F9108950F931F93CF93DF93809178
:10026000150181113CC00E941709209110013091A5
:100270001101821B930B80930E0190930F0120912B
:100280000E0130910F0180911201909113012115FF
:10029000310509F047C080931001909311018091BE
:1002A0001401282F30E0E9E0E89FD0011124AC5C74
:1002B000BE4F9C9191118BC0811551F08150282F18
:1002C000E89FF0011124EC5CFE4F908191117FC0FA
:1002D00080931401DF91CF911F910F910895F894AD
:1002E000E0911A01F0911B01C681D781CE010C96D5
:1002F0000E94090478948E010E5F1F4FC8010E946E
:1003000009048E8990911401981710F480931401B8
:1003100029E0829FC0011124B8018C5C9E4F0E948D
:10032000BA039DCF0196809312019093130121503F
:10033000310920930E0130930F01892B81F48091B4
:1003400020019091210120911E0130911F012093E5
:1003500020013093210180931E0190931F01E091B1
:100360002001F09121018081811509F488CF058059
:10037000F681E02DC681D7818A819B81209112016F
:10038000309113012817390708F479CFF8948E01BA
:100390000E5F1F4FC8010E9409048C899D89892B1B
:1003A00021F0CE010C960E94090478948E899091D8
:1003B0001401981710F480931401A9E08A9FC001DA
:1003C0001124B8018C5C9E4F0E94BA03C8CF809361
:1003D000140199E0929FD001939FB00D1124AC5C61
:1003E000BE4F1196ED91FD910280F381E02DFE93B9
:1003F000EE931197989FC0011124895C9E4FE817D6
:10040000F90731F40280F381E02D1196ED93FD930D
:100410008681978180930C0190930D01DC01ED9111
:10042000FD9155966C91DF91CF911F910F91099499
:100430000F931F93CF93DF93DC011596ED91FD9100
:10044000C681D7818E01045F1F4FC8010E94090435
:10045000B80185E191E00E94BA03E0910C01F091AE
:100460000D0181E02E899689291708F480E0DF913B
:10047000CF911F910F910895CF93DF938BE090E080
:100480000E94950FEC01009731F0FC01119211923E
:10049000CF010E94A803CE01DF91CF910895AF92C2
:1004A000BF92CF92DF92EF92FF920F931F93CF9361
:1004B000DF937C01EB01B42EA22E68010E9411098A
:1004C000F70100811181C8018C239D23A11016C062
:1004D000892BB9F4C114D104F1F081E0B11001C04D
:1004E00080E0782FA11074606C2F7D2BA601C701CE
:1004F00002960E94320B00E010E00FC08C179D079F
:1005000049F7B11441F0CE01809590958023912355
:10051000F70180839183C12CD12C0E94D709CD286B
:10052000C9F0811102C00E94DD0E0E940B0C91FDEA
:100530000FC00FB6F8940F92F701808191819E0150
:1005400028233923A11012C0232B99F40F900FBE3A
:10055000082F10E0C801DF91CF911F910F91FF90FC
:10056000EF90DF90CF90BF90AF900895C217D30760
:1005700069F7B11459F3C095D095C823D923F70171
:10058000C083D183E3CFFC010FB6F8940F92808132
:1005900091816095709568237923608371830F90B2
:1005A0000FBE0895FC01808191810895CF92DF9262
:1005B000EF92FF920F931F93CF93DF93EC018B0188
:1005C0007C0185E0E80EF11C0E941109EF81F8859D
:1005D00068817981602B712B6883798300E010E05A
:1005E00068817981EE15FF0599F400951095062331
:1005F0001723088319830E94D70988819981DF9185
:10060000CF911F910F91FF90EF90DF90CF900895C1
:10061000C280D38020813181822F90E0AC014623BB
:1006200032FD04C0452B29F4F601DACF8417950773
:10063000D9F730FD082B7260CF010E949C0BF4CFDC
:10064000AF92BF92CF92DF92EF92FF920F931F93E0
:10065000CF93DF937C01EB018A0169010E941109AC
:10066000F701A080B180BE01C7010E94D602CA294D
:10067000DB29CE01802391238017910709F03BC02D
:10068000F7018081918198012095309582239323F1
:1006900080839183C12CD12C0E94D709CD28F9F0F9
:1006A000811102C00E94DD0E0E940B0C91FD15C04D
:1006B0000FB6F8940F92F701808191819801282359
:1006C00039232017310739F4A80140955095482364
:1006D0005923408351830F900FBEC82FD0E0CE0125
:1006E000DF91CF911F910F91FF90EF90DF90CF900E
:1006F000BF90AF900895C114D10451F0A601B80184
:100700007560C70102960E94320BC0E0D0E0C4CFF2
:10071000F701C081D181C0CFCF93DF93EC010E945C
:1007200011098A81811107C0CE010E94C70FDF9194
:10073000CF910C94D70960E072E08F8198850E9478
:100740009C0BEFCFBA010C94D602BA010C94C302F1
:10075000FC010396818392832FEF3FEF2383348341
:10076000858396838783908710820895FC01108685
:1007700011860895CF93DF93DC01FB0111968D91D3
:100780009D91139782839383EC012C813D81248377
:1007900035832C813D81E9016A83FB83EC016C8305
:1007A000FD83A087B1878C918F5F8C93DF91CF9170
:1007B0000895CF93DF93DC01FB01408151819C01BF
:1007C0002D5F3F4F4F3F5407C9F417968D919D9170
:1007D0001997EC012A813B8122833383E901EC8361
:1007E000FD8384839583EC01EA83FB83A087B18733
:1007F0008C918F5F8C93DF91CF910895C901E901AE
:100800002A813B81E9016881798146175707B0F752
:10081000E0CFCF93DF93FC01A085B18522813381A6
:1008200084819581E9018C839D8384819581EC018C
:100830002A833B8311962D913D9113972E173F07E5
:1008400021F411968D939D931397108611868C91A8
:1008500081508C93DF91CF910895FC019B01948D81
:100860009115A1F0492F50E066817781690F711DC4
:1008700066837783828193816817790720F060818E
:10088000718166837783C9010C94EA0F0895CF9331
:10089000DF9300D000D0CDB7DEB78B839C830FB63B
:1008A000F8940F92419689839A83EB81FC81868D1F
:1008B00018162CF4EB81FC818189811123C08FEF04
:1008C000EB81FC81868F0F900FBE0FB6F8940F92CC
:1008D0003896E983FA83EB81FC81858D18162CF418
:1008E000EB81FC81808581111AC08FEFEB81FC8147
:1008F000858F0F900FBE0F900F900F900F90DF918C
:10090000CF91089589819A810E945D0B81110E9487
:10091000070CEB81FC81868D8150868FC6CF898143
:100920009A810E945D0B81110E94070CEB81FC8172
:10093000858D8150858FCFCF1F93CF93DF93EC01AF
:10094000142F4C8D4115B9F050E011111BC08C8152
:100950009D810E94EA0F2C8D8C819D81820F911DBB
:100960008C839D832A813B818217930720F08881A5
:1009700099818C839D838A8D8F5F8A8FDF91CF9140
:100980001F9108958E819F810E94EA0F8C8D90E0C7
:100990002E813F81281B390B2E833F83488159814B
:1009A0002417350730F42A813B81281B390B2E830D
:1009B0003F83123001F78A8D8115E9F28A8D8150CB
:1009C0008A8FD9CFCF93DF93EC010FB6F8940F92B3
:1009D000288139814C8D8B8D489FC0011124F901EC
:1009E000E80FF91FEA83FB831A8E2C833D83841B57
:1009F0009109280F391F2E833F838FEF8D8F8E8FA4
:100A0000611111C08885811541F0CE0108960E94C0
:100A10005D0B813011F40E94DD0E0F900FBE81E05E
:100A2000DF91CF910895CE0108960E94A803CE01D0
:100A300041960E94A803F1CF0F931F93CF93DF93AA
:100A4000082F162F80E090E0611521F0069FC0016D
:100A5000112401964F960E94950FEC01009761F0CA
:100A60004F96111101C0CE01888399830B8F1C8F83
:100A700061E0CE010E94E204CE01DF91CF911F918F
:100A80000F9108950F931F93CF93DF93CDB7DEB7E8
:100A90002A970FB6F894DEBF0FBECDBF8C016F83CF
:100AA00078874C835D832E8380E09801285F3F4FD9
:100AB00029873A870FB6F8940F92F801228D938D0B
:100AC000291700F54E816F817885C8010E949C042A
:100AD000F8018189811541F0C80141960E945D0BA2
:100AE000813011F40E94DD0E0F900FBE81E02A9636
:100AF0000FB6F894DEBF0FBECDBFDF91CF911F912F
:100B00000F910895FE81F230E9F22C813D81232B73
:100B100021F40F900FBE80E0EACF811104C0CE0116
:100B200001960E94D00B0F900FBE0E9411090FB6C4
:100B3000F8940F92F801858D8F3F09F4158EF80116
:100B4000868D8F3F09F4168E0F900FBEBE016C5F2D
:100B50007F4FCE0101960E94DB0B811121C00FB6A1
:100B6000F8940F92F801928D0F900FBE838D981319
:100B700011C06C817D8189859A850E940E0BC80108
:100B80000E9447040E94D709811102C00E94DD0E15
:100B900081E090CFC8010E9447040E94D709F8CF96
:100BA000C8010E9447040E94D709B5CF0F931F9335
:100BB000CF93DF93EC018A019A8D8B8D981718F0F3
:100BC00080E02230B9F4422FCE010E949C048E8D29
:100BD0008F3FA9F48989811561F0CE0141960E9469
:100BE0005D0B811531F00115110519F081E0F80157
:100BF000808381E0DF91CF911F910F9108958E8DB9
:100C00008F5F8E8FF6CFCF93DF93FC01EB01928D38
:100C1000838D9817D8F4828D8F5F828F868D8F3F5A
:100C200089F48189811551F0CF0141960E945D0BB5
:100C3000811521F0209711F081E0888381E0DF9118
:100C4000CF910895868D8F5F868FF8CF80E0F7CFA4
:100C5000EF92FF920F931F93CF93DF93CDB7DEB741
:100C600028970FB6F894DEBF0FBECDBF8C016E8300
:100C70007F834C835D83288780E0780191E1E90ED2
:100C8000F11C0FB6F8940F92F801928D9115B1F105
:100C9000E680F7806E817F81C8010E942D04F8856F
:100CA000F1111FC0F801828D8150828F80858115DE
:100CB00041F0C80108960E945D0B813011F40E943A
:100CC000DD0E0F900FBE81E028960FB6F894DEBFC0
:100CD0000FBECDBFDF91CF911F910F91FF90EF908D
:100CE0000895F801E682F7828189811551F3C801E0
:100CF00041960E945D0B811521F3E1CF2C813D814E
:100D0000232B21F40F900FBE80E0DECF811104C0B1
:100D1000CE0101960E94D00B0F900FBE0E941109C8
:100D20000FB6F8940F92F801858D8F3F09F4158E58
:100D3000F801868D8F3F09F4168E0F900FBEBE010D
:100D40006C5F7F4FCE0101960E94DB0B81111FC0AB
:100D50000FB6F8940F92F801828D0F900FBE81119B
:100D600010C06C817D81C7010E940E0BC8010E94DA
:100D700047040E94D709811102C00E94DD0E81E064
:100D800080CFC8010E9447040E94D709F8CFC8014C
:100D90000E9447040E94D709B7CF0F931F93CF93A8
:100DA000DF93EC018A018A8D8115C9F0CE010E9482
:100DB0002D048A8D81508A8F8D8D8F3FA9F488856F
:100DC000811561F0CE0108960E945D0B811531F00E
:100DD0000115110519F081E0F801808381E0DF91B0
:100DE000CF911F910F9108958D8D8F5F8D8FF6CFCD
:100DF0000F931F93CF93DF93EC018A8D811541F000
:100E00000E811F81CE010E942D040E831F8381E07D
:100E1000DF91CF911F910F9108950FB6F8940F9223
:100E2000FC01828D0F900FBE08950FB6F8940F92BB
:100E3000FC01228D0F900FBE838D821B0895FC0153
:100E4000828D08950C94C70FFC01928D81E0911161
:100E500080E00895FC01928D81E0238D291380E0CC
:100E60000895E0916701F09168018081811107C0C8
:100E70008FEF9FEF90930101809300010895E0911F
:100E80006701F09168010580F681E02D0680F78109
:100E9000E02D82819381EECFCF93DF93EC01E0913F
:100EA0004601F09147018283D38380914F01909155
:100EB00050016091460170914701C817D90750F45D
:100EC00080916501909166016E5F7F4FDF91CF91B8
:100ED0000C94D90380916701909168016E5F7F4FF8
:100EE0000E94D9038091000190910101C817D90790
:100EF00020F4D0930101C0930001DF91CF910895B8
:100F0000AF92BF92CF92DF92EF92FF920F931F9317
:100F1000CF93DF9300D000D000D00F92CDB7DEB7D3
:100F200089839A836D83172F5A012B833C83C114C5
:100F3000D104C1F4CA010E94950F6C01892B91F470
:100F40008FEF27960FB6F894DEBF0FBECDBFDF91AF
:100F5000CF911F910F91FF90EF90DF90CF90BF90B6
:100F6000AF90089587E290E00E94950F8E839F8353
:100F7000009709F4B7C0FC01C78AD08EF1E0AF1A20
:100F8000B108CA0CDB1CED81F12FDC0159969F01E1
:100F9000285F3F4F80818C938111A8C0EE81FF8133
:100FA00010A2102F043008F013E0EE81FF81168BA1
:100FB00032965F01CF010E94B6038E819F810C960D
:100FC0000E94B6038E819F81FC018087918784E017
:100FD00090E0811B910984879587F38BE28B11A2A6
:100FE00012A213A214A216A215A24B815C816981E0
:100FF0007A81C6010E94560EEE81FF818083918323
:10100000E114F10409F079C00FB6F8940F928091C1
:1010100051018F5F8093510180914601909147016A
:10102000892B09F070C0EE81FF81F0934701E093B6
:10103000460180915101813069F58BE7E82E81E00E
:10104000F82E9FE9C92E91E0D92EC7010E94A8036E
:10105000F9E0EF0EF11CCE14DF04B9F782E791E05E
:101060000E94A80389E691E00E94A8038CE591E024
:101070000E94A80383E591E00E94A80382E791E023
:10108000909368018093670189E691E090936601EF
:1010900080936501809149018F5F80934901EE81C2
:1010A000FF81868990914E01981710F480934E012C
:1010B000F9E08F9FC0011124B50185589E4F0E9411
:1010C000BA030F900FBE80914D01811549F0E09158
:1010D0004601F09147018689801710F40E94DD0EC9
:1010E00081E02FCFC6010E94C70F2ACF31961196FB
:1010F000E217F30709F04ECF51CF8E819F81F701A0
:101100008083918381CF80914D018111C3CFE09184
:101110004601F09147018689081708F4BBCF8E81FC
:101120009F819093470180934601B4CF0F931F9303
:10113000CF93DF93EC010FB6F8940F92892B21F433
:10114000C0914601D09147018E010E5F1F4FC8012B
:101150000E9409048C899D89892B21F0CE010C966F
:101160000E940904B80183E591E00E94BA038091CE
:1011700052018F5F80935201809149018F5F80936C
:1011800049010F900FBE80914D01811549F080916A
:101190004601909147018C179D0739F40E94DD0E9E
:1011A000DF91CF911F910F9108950FB6F8940F9290
:1011B0000E9431070F900FBEF3CFAF92BF92CF9234
:1011C000DF92EF92FF920F93A12CB12C6501750174
:1011D00000E0950145E550E066E071E08AE99AE0BB
:1011E0000E948007813081F4F89480934D01109221
:1011F000500110924F010F91FF90EF90DF90CF9030
:10120000BF90AF900C949D0E0F91FF90EF90DF90E8
:10121000CF90BF90AF900895F89410924D010C9428
:10122000DC0E809148018F5F8093480108950FB6CE
:10123000F8940F9280914F01909150010F900FBE42
:10124000089580914F01909150010895809151012E
:101250000895CF92DF92EF92FF920F931F93CF9357
:101260008091480181119CC080914F019091500163
:1012700001969093500180934F01E0904F01F090C0
:101280005001E114F104B9F4809167019091680173
:1012900020916501309166013093680120936701C8
:1012A000909366018093650180914A018F5F8093DE
:1012B0004A010E9431078091000190910101C0E034
:1012C000E816F90668F0E0916701F0916801808105
:1012D000811126C08FEF9FEF909301018093000151
:1012E000E0914601F0914701E689B9E0EB9FF001FA
:1012F0001124E558FE4F81E09081923008F480E09F
:101300008C2B20914B0191E0211101C090E0892BA1
:10131000CF911F910F91FF90EF90DF90CF900895A4
:10132000E0916701F09168010580F681E02D06816A
:101330001781D80112968D919D91E816F90660F2F9
:101340006801B2E0CB0ED11CC6010E940904F8016D
:1013500084899589892B21F0C8010C960E94090483
:10136000D80156968C9190914E01981710F4809365
:101370004E01B9E08B9FC0011124B60185589E4FE4
:101380000E94BA03E0914601F091470181E0D80143
:1013900056962C919689291708F480E0C82B93CF94
:1013A00080914C018F5F80934C0180E0AACF0F9316
:1013B0001F93CF93DF930FB6F8940F92809148015B
:1013C00081508093480180914801811549F0C0E027
:1013D0000F900FBE8C2FDF91CF911F910F91089529
:1013E00080915101811599F380915C0181110CC0AC
:1013F00080914C01C1E081113DC0C0914B01C130D1
:1014000031F70E94DD0EE4CFE0916101F0916201BD
:10141000C681D781CE010C960E9409048E010E5F11
:101420001F4FC8010E9409048E8990914E019817A0
:1014300010F480934E0129E0829FC0011124B8016D
:1014400085589E4F0E94BA03E0914601F0914701F2
:101450009E898689981740F281E080934B01C4CF22
:101460000E9429098111C0934B0180914C01815048
:1014700080934C0180914C018111F2CFBECF0F932C
:101480001F93CF93DF938C01EB010E9411092091F0
:101490004F0130915001F80180819181C80FD91F0F
:1014A0002817390780F4C817D90780F0C083D18383
:1014B0000E94D709811102C00E94DD0EDF91CF91F9
:1014C0001F910F910895C817D90728F02C173D07D1
:1014D00010F0F801EBCFF801C083D1838091460171
:1014E0009091470102960E940904CE010E944C0788
:1014F000DFCFCF93DF93EC01892B29F40E94DD0E1F
:10150000DF91CF9108950E94110980914F01909130
:101510005001C80FD91F8091460190914701029652
:101520000E940904CE010E944C070E94D709811530
:1015300029F3E6CF80915201811109C080917B018E
:10154000823010F00E94DD0E0E946700F3CF0E94EF
:101550001109C09153010E94D709C11559F30FB663
:10156000F8940F92E0915801F0915901C681D7810A
:10157000CE0102960E94090480915101815080930E
:101580005101809152018150809352010F900FBE02
:101590008F89988D0E94C70FCE010E94C70FCACFB6
:1015A00080914801811521F081E080934B010895DD
:1015B00010924B0189E0E0914E018E9FF0011124C1
:1015C000E558FE4F9081911519F190914E01899F38
:1015D000C0011124DC01A558BE4F1196ED91FD917B
:1015E0000280F381E02DFE93EE93119782589E4F77
:1015F000E817F90731F40280F381E02D1196ED939D
:10160000FD938681978190934701809346010895C9
:1016100090914E01915090934E01CDCFCF93DF9397
:1016200000D0CDB7DEB769837A83609146017091AF
:101630004701645F7F4F0E94D903809146019091DA
:10164000470102960E94090480914F019091500138
:1016500029813A81820F931F0F900F90DF91CF91D4
:101660000C944C07CF93DF9300D0CDB7DEB74983FE
:101670005A83E0914601F09147017068648775874D
:101680006091460170914701645F7F4F0E94BA03E9
:10169000809146019091470102960E940904809131
:1016A0004F019091500129813A81820F931F0F9031
:1016B0000F90DF91CF910C944C070F931F93CF9312
:1016C000DF93DC011596ED91FD91C681D7818E01E6
:1016D000045F1F4FC8010E940904809148018111D5
:1016E00025C00A501109C8010E9409048E899091F1
:1016F0004E01981710F480934E01B9E08B9FC00102
:101700001124B80185589E4F0E94BA03E09146010A
:10171000F09147018E899689981760F481E0809353
:101720004B01DF91CF911F910F910895B8018CE586
:1017300091E0EACF80E0F5CF0F931F93CF93DF9333
:101740007068FC0160837183C681D7810E9409049F
:101750008E010E5F1F4FC8010E9409048E8990916F
:101760004E01981710F480934E01F9E08F9FC0014D
:101770001124B80185589E4F0E94BA03E09146019A
:10178000F09147018E899689981740F481E0809303
:101790004B01DF91CF911F910F91089580E0F9CF18
:1017A00020914A01FC01208320914F01309150018A
:1017B0002183328308950FB6F8940F92E0914F0180
:1017C000F091500120914A01DC0111964D915D91FB
:1017D00013973C91321719F0E417F507B0F4DB01C9
:1017E0002D913D91DF01A41BB50BA217B30768F43F
:1017F0002E1B3F0B240F351FFB01208331830E94DA
:10180000D00B80E00F900FBE089581E0FBCF81E008
:1018100080934B010895E0914601F0914701848542
:101820009585A0914601B0914701E0914601F09164
:10183000470156964C9124E030E0241B310924875F
:1018400035870895CF93DF9300D00F92CDB7DEB7E1
:1018500089836A837B830FB6F8940F92E0914601E7
:10186000F091470181A192A1A3A1B4A1892B8A2B58
:101870008B2BE9F4E0914601F091470181E090E083
:1018800096A385A3672B99F080914601909147011B
:1018900002960E94090480914F01909150012A8183
:1018A0003B81820F931F0E944C070E94DD0E0F9018
:1018B0000FBE0FB6F8940F92E0914601F0914701E8
:1018C00061A172A183A194A100977040604059F07A
:1018D0003981E0914601F0914701311591F011A253
:1018E00012A213A214A2E0914601F091470116A2A0
:1018F00015A20F900FBE0F900F900F90DF91CF9118
:10190000089521A132A143A154A1215031094109D7
:10191000510921A332A343A354A3E5CFEF92FF9231
:101920000F931F93CF93DF9300D000D0CDB7DEB7D6
:1019300029833A834B835C830FB6F8940F92E0912E
:101940004601F091470125A136A12230310581F1F0
:10195000E0914601F091470121A132A143A154A198
:1019600060957095809590956223732384239523C9
:1019700061A372A383A394A3E0914601F091470170
:1019800081E090E096A385A3E114F10489F08091B1
:1019900046019091470102960E94090480914F01EF
:1019A000909150018E0D9F1D0E944C070E94DD0EEC
:1019B0000F900FBE0FB6F8940F920115110569F044
:1019C000E0914601F091470181A192A1A3A1B4A1A8
:1019D000F80180839183A283B383E0914601F09163
:1019E000470185A196A1019761F1E0914601F0912F
:1019F000470141A152A163A174A189819A81AB8160
:101A0000BC8180959095A095B09584239523A623BD
:101A1000B72381A392A3A3A3B4A381E0E0914601DD
:101A2000F091470116A215A20F900FBE0F900F90D4
:101A30000F900F90DF91CF911F910F91FF90EF903A
:101A4000089580E0EBCF0F931F93CF93DF93EC01CA
:101A50000FB6F8940F92EDA1FEA182E090E09EA354
:101A60008DA323303105C9F188F521303105D1F13D
:101A70002230310509F443C0319701F58E010E5F24
:101A80001F4FC8010E9409048E8990914E0198173A
:101A900010F480934E0129E0829FC0011124B80107
:101AA00085589E4F0E94BA03E0914601F09147018C
:101AB0008E899689981710F40E94DD0E81E00F90B0
:101AC0000FBEDF91CF911F910F9108952430310502
:101AD00099F680E0E230F10591F349A35AA36BA394
:101AE0007CA3CACF89A19AA1ABA1BCA1842B952BC1
:101AF000A62BB72B89A39AA3ABA3BCA3BDCF89A167
:101B00009AA1ABA1BCA10196A11DB11DF3CFEF928B
:101B1000FF920F931F93CF93DF93EC01EDA1FEA1F2
:101B200082E090E09EA38DA32330310509F443C0E9
:101B3000D8F52130310509F443C02230310509F4CC
:101B40004CC0319749F58091480181114EC07E010A
:101B500022E0E20EF11CC7010E9409048E899091D7
:101B60004E01981710F480934E01E9E08E9FC0015A
:101B70001124B70185589E4F0E94BA03E091460197
:101B8000F09147018E899689981730F40115110557
:101B900019F081E0F801808381E0DF91CF911F91FE
:101BA0000F91FF90EF9008952430310551F680E0B9
:101BB000E230F10591F349A35AA36BA37CA3C1CFF3
:101BC00089A19AA1ABA1BCA1842B952BA62BB72BE5
:101BD00089A39AA3ABA3BCA3B4CF89A19AA1ABA1BB
:101BE000BCA10196A11DB11DF3CFBE01645F7F4F63
:101BF0008CE591E0C1CFEF92FF920F931F93CF93AB
:101C0000DF93EC018B012DA13EA182E090E09EA329
:101C10008DA389A19AA1ABA1BCA10196A11DB11D63
:101C200089A39AA3ABA3BCA32130310549F58091C8
:101C3000480181112CC07E0122E0E20EF11CC70197
:101C40000E9409048E8990914E01981710F4809398
:101C50004E01E9E08E9FC0011124B70185589E4FC7
:101C60000E94BA03E0914601F09147018E8996895E
:101C7000981730F40115110519F081E0F8018083FF
:101C8000DF91CF911F910F91FF90EF900895BE01CA
:101C9000645F7F4F8CE591E0E3CF3D9A089588B172
:101CA00090E2892788B908954598089531E1FC01AB
:101CB000308322E22293A3E3A2936293729312925F
:101CC00060E86293129262E0629363E0629364E080
:101CD000629365E0629366E0629367E0629368E016
:101CE000629369E0629360E16293329332E13293EE
:101CF00033E1329334E1329335E1329336E132937A
:101D000037E1329338E1329339E1329330E2329362
:101D100031E23293229323E222934293529326E2BA
:101D2000229327E2229328E2229329E2229320E3BE
:101D3000229321E32293869708958CE790E0909375
:101D4000890080938800E0E8F0E080818C7F8083C8
:101D50008BE080938100EFE6808182608083A09198
:101D60004601B0914701CD91CDBFDD91DEBFFF911E
:101D7000EF91DF91CF91BF91AF919F918F917F9123
:101D80006F915F914F913F912F911F910F91FF9014
:101D9000EF90DF90CF90BF90AF909F908F907F900B
:101DA0006F905F904F903F902F901F900F900FBEBD
:101DB0000F90089581E0089508950F920FB6F8945A
:101DC0000F921F9211242F923F924F925F926F9227
:101DD0007F928F929F92AF92BF92CF92DF92EF92BB
:101DE000FF920F931F932F933F934F935F936F93A4
:101DF0007F938F939F93AF93BF93CF93DF93EF9393
:101E0000FF93A0914601B09147010DB60D920EB619
:101E10000D920E94D00AA0914601B0914701CD9148
:101E2000CDBFDD91DEBFFF91EF91DF91CF91BF91EB
:101E3000AF919F918F917F916F915F914F913F9162
:101E40002F911F910F91FF90EF90DF90CF90BF9057
:101E5000AF909F908F907F906F905F904F903F904A
:101E60002F901F900F900FBE0F9008950F920FB6F6
:101E7000F8940F921F9211242F923F924F925F92EB
:101E80006F927F928F929F92AF92BF92CF92DF928A
:101E9000EF92FF920F931F932F933F934F935F9374
:101EA0006F937F938F939F93AF93BF93CF93DF9362
:101EB000EF93FF93A0914601B09147010DB60D92AB
:101EC0000EB60D920E94290981110E94D00AA0919C
:101ED0004601B0914701CD91CDBFDD91DEBFFF91AD
:101EE000EF91DF91CF91BF91AF919F918F917F91B2
:101EF0006F915F914F913F912F911F910F91FF90A3
:101F0000EF90DF90CF90BF90AF909F908F907F9099
:101F10006F905F904F903F902F901F900F900FBE4B
:101F20000F9008950E94360F1895CF93DF93EC0120
:101F30000E94110980919F019091A001892B31F499
:101F400084EA91E080939F019093A0012091A101E8
:101F50003091A201C9018C0F9D1F8B3D45E0940774
:101F600098F42817390780F4C0919F01D091A001FF
:101F7000C20FD31F8093A1019093A2010E94D709A1
:101F8000CE01DF91CF910895C0E0D0E0F7CF089562
:101F90001092A1011092A20108958091A101909147
:101FA000A2012BED35E0A901481B590BCA01089588
:101FB000A12CB12C6501750103E0950145E550E0C8
:101FC00062E071E083E590E00E9480070E94DD08F6
:101FD000C5010895FB01DC0102C001900D92415042
:0A1FE0005040D8F70895F894FFCFA1
:0C1FEA00FFFF4C45440049444C450000FA
:00000001FF
